S00E00006D696E696D616C2E733139FF
S3150800000000C00120A901000815030008110900080D
S315080000101503000815030008150300080000000072
S3150800002000000000000000000000000015030008A2
S315080000301503000800000000150300081503000852
S315080000401503000815030008150300081503000822
S315080000500000000015030008010200081503000847
S315080000601503000815030008150300081503000802
S3150800007015030008150300081503000815030008F2
S3150800008015030008150300081503000815030008E2
S3150800009015030008150300081503000815030008D2
S315080000A015030008150300081503000815030008C2
S315080000B015030008150300081503000815030008B2
S315080000C015030008150300081503000815030008A2
S315080000D01503000815030008150300081503000892
S315080000E01503000815030008150300081503000882
S315080000F01503000815030008150300081503000872
S315080001001503000815030008150300081503000861
S315080001101503000815030008150300081503000851
S315080001201503000815030008150300081503000841
S315080001301503000815030008150300081503000831
S315080001401503000815030008150300081503000821
S315080001501503000815030008150300081503000811
S315080001601503000815030008150300081503000801
S3150800017015030008150300081503000815030008F1
S315080001801503000815030008000000000000000021
S315080001900000000000000000000000000000000051
S30D080001A0150300081503000809
S315080001A800F0B5F80E480F490022814201D004C074
S315080001B8FBE70D480D490E4A814202D008CA08C015
S315080001C8FAE70C484FF47001026842EA0102026035
S315080001D8BFF34F8FBFF36F8F00F02EF800DE0000D5
S315080001E838000020400000200000002038000020C9
S315080001F82C09000888ED00E0D0B502AF00F00CF92C
S3150800020840F20100C0F2000000F082F800F04CF954
S3150800021800F0CCFA044600F0C0FA43F6144001216F
S31508000228C4F201000160E00708BF00F0B8FA002030
S31508000238BDE8D04000F0BDBA80B56F4600F0ADFA0B
S315080002484EF20640F021CEF2000001704EF2001080
S31508000258CEF200004021016000F003F800F0A4FA8D
S31508000268FCE7B0B502AF40F2002440F23D00C4F204
S3150800027847240125C2F20000C4F80054057000F0AE
S3150800028890FA00202560206000F090FA044600F0F5
S3150800029884FA0C200222C4F20200016862F3010102
S315080002A801604FF6084043F60041CFF6FF70C4F2E6
S315080002B801010A5865F303020A50086840F001006C
S315080002C80860886840F0010088604EF206404021C0
S315080002D8CEF2000005704EF20010CEF20000016062
S315080002E8C0F88011E00708BF00F059FABDE8B04029
S315080002F800F055BA80B56F4600F04EFA80B56F46DD
S31508000308FFF7F8FF80B56F46FFF7F4FFFEE770477B
S3150800031880B56F4682B027F8020CB81E022100F095
S3150800032845F900F002F802B080BD704780B56F46FF
S3150800033800F000F880B56F46FFF7E4FFF0B503AFA5
S315080003482DE9000B3AB3044688460069E168BFF30D
S315080003585F8F884202D9CB43C51806E0002812BF2A
S31508000368C1F5806540F2FF30451AA5B1AA4238BFE3
S3150800037815466E18B6F5806F0FD96068C1F580699D
S31508000388084441464A4600F017FA606808EB09012E
S31508000398A5EB090205E000250AE060682A46084434
S315080003A8414600F009FA6FF39F26BFF35F8FE660B0
S315080003B82846BDE8000BF0BDF0B503AF2DE9000BE4
S315080003C88846C1681446B2F5806F28BF4FF4806422
S315080003D80E190546B6F5806FBFF35F8F0DD96868A5
S315080003E8C1F58069084441464A4600F0E5F9686857
S315080003F808EB0901A4EB090203E0686822460844E9
S31508000408414600F0D9F9BFF35F8F6FF39F26EE6078
S315080004182046BDE8000BF0BDF0B503AF4DF804BDA6
S3150800042882B000F0C3F9044600F0B7F940F2380183
S31508000438C2F200010878A8BB012040F23906087004
S3150800044840F23A01C2F20001C2F200060B7820EA2D
S315080004580402327003BB087040F200050020C2F29D
S31508000468000507F8110C40F2C136E86AA7F111042D
S3150800047840F24531C0F6000600F00300C0F6000158
S31508000488022808BF0E4605F1180021460122B04782
S315080004980028F8D0012803D102B05DF804BBF0BDE6
S315080004A8FFF72CFFFFF726FFF0B503AF2DE9000F7E
S315080004B881B040F23B0940F20006C2F2000940F258
S315080004C8453A99F8000040F2C13540F23C08C2F2B4
S315080004D80006C0F6000AC0F60005C2F20008A0B376
S315080004E807281BD24FF0FF3298F8001002FA00F0DE
S315080004F8A7F11D0B08432C4600F07F0007F81D0CD2
S31508000508F06A00F00300022808BF544606F11800EE
S3150800051859460122A0470028F8D014E07930A7F1F7
S315080005281E0B40F0800007F81E0CF06A2C4600F0F7
S315080005380300022808BF544606F118005946012246
S31508000548A0470028F8D001282ED10020A7F11F04BB
S3150800055807F81F0CF06A00F00300022808BF554682
S3150800056806F1180021460122A8470028F8D00128D4
S315080005781AD140F238010020C2F2000189F80000B9
S3150800058888F80000087040F23900C2F200000078C6
S3150800059830B101B0BDE8000FBDE8F04000F0FFB883
S315080005A801B0BDE8000FF0BDFFF7A8FEF0B503AF30
S315080005B82DE9000F85B0002900F0E8808346084435
S315080005C8029040F23C00C2F2000040F2000A0678A7
S315080005D840F23B00C2F20000A7F11E0490F8009012
S315080005E80DF11008C2F2000A1BF8010B5FFA89F12F
S315080005F807291CD2002867D007F81E0C40F2C13517
S31508000608DAF82C00C0F6000500F00300022840F2CC
S315080006184530C0F6000008BF05460AF1180021460D
S315080006280122A8470028F8D0012855D0B2E00028AA
S315080006387BD0CDF804B040F2C13B8DF81000C0F667
S31508000648000BDAF82C0000F00300022840F24530C7
S31508000658C0F6000008BF83460AF11805414601227C
S315080006682846D8470028F7D0DDF804B0012840F016
S31508000678918040F23B0009F10109C2F2000080F8B6
S3150800068800905FFA89F086287CD1FF2040F2C136AF
S3150800069807F81F0CA146DAF82C00A7F11F04C0F6C4
S315080006A8000600F00300022840F24530C0F60000B4
S315080006B808BF0646284621460122B0470028F9D031
S315080006C8012867D14C4650E001208840064340F28D
S315080006D83C00C2F20000067040F23B0009F101092D
S315080006E8C2F2000080F800905FFA89F0072849D11D
S315080006F8300647D007F81D6C40F2C135DAF82C00E9
S31508000708A7F11D06C0F6000500F00300022840F20E
S315080007184530C0F6000008BF05460AF118003146FC
S315080007280122A8470028F8D01DE009F1790040F20F
S31508000738C13540F0800007F8210CDAF82C00A7F13B
S315080007482106C0F6000500F00300022840F24530ED
S31508000758C0F6000008BF05460AF11800314601220E
S31508000768A8470028F8D0012814D140F23C000026F2
S31508000778C2F200004FF00009067040F23B00C2F2D0
S3150800078800000670029883457FF42EAF05B0BDE8D1
S31508000798000FF0BDFFF7B2FDFEE772B6704762B606
S315080007A87047BFF34F8F704700BF7047EFF310804D
S315080007B8704780F31188704700F000B800F000B859
S315080007C8F0B503AF2DE90007102A63D3434213F0A7
S315080007D8030400EB040C16D003460E46357803F8D6
S315080007E8015B63450FD2757803F8015B63453EBF25
S315080007F8B57803F8015B634505D2F578043603F83E
S31508000808015B6345EAD3A2EB040E01EB04092EF05B
S3150800081803080CEB08035FEA89713ED0B8F1010FAB
S3150800082854DB182129F0030201EAC90A4FEAC9016B
S3150800083802F108054942126801F0180655F8041C21
S3150800084822FA0AF201FA06F422434CF8042B9C45CC
S315080008583CD22A6821FA0AF102FA06F421434CF82E
S31508000868041B9C453FBF696822FA0AF201FA06F496
S3150800087822433CBF4CF8042B9C4527D2AA6821FA88
S315080008880AF1103502FA06F421434CF8041B9C4574
S31508000898D4D31BE00346F2B933E0B8F1010F15DBF0
S315080008A84C4621684CF8041B9C450FD261684CF8E5
S315080008B8041B9C453EBFA1684CF8041B9C4505D201
S315080008C8E16810344CF8041B9C45EAD309EB080187
S315080008D80EF00302AAB11A440E7803F8016B934284
S315080008E80FD24E7803F8016B93423EBF8E7803F811
S315080008F8016B934205D2CE78043103F8016B934213
S31508000908EAD3BDE80007F0BD70460421084203D1C2
S31508000918EFF3088000F004B8EFF3098000F000B898
S30908000928FEE7D4D430
S3150800092C53454747455220525454000000000000D6
S3150800093C01000000000000003000002040000020EC
S3150800094C0004000000000000000000000100000088
S30D0800095C6465666D7400000075
S705080001A948
